:020000040800F2
:10000000005000200D0400085104000851040008AD
:1000100051040008510400085104000800000000C9
:100020000000000000000000000000005104000873
:1000300051040008000000005104000851040008A9
:10004000510400085104000851040008510400083C
:10005000510400085104000851040008510400082C
:10006000510400085104000851040008510400081C
:10007000510400085104000851040008510400080C
:1000800051040008510400085104000851040008FC
:1000900051040008510400085104000851040008EC
:1000A00051040008510400085104000851040008DC
:1000B00051040008510400085104000851040008CC
:1000C00051040008510400085104000851040008BC
:1000D00051040008510400085104000851040008AC
:1000E00051040008510400085104000800000000F9
:1000F0000000000000000000000000000000000000
:0C01000000000000000000005FF808F1A3
:10010C0054040008000000201400002014000020FB
:10011C001400002080B400AF0D4B9B690C4A43F0D7
:10012C00100393610B4B5B680A4A23F480135360F2
:10013C00084B5B68074A23F480035360054B5B68EC
:10014C00044A43F44013536000BFBD4680BC704763
:10015C00001002400010014080B483B000AF786002
:10016C0000E000BF7B685A1E7A60002BF9D100BFFB
:10017C0000BF0C37BD4680BC704780B500AFFFF7A1
:10018C00C9FF074B4FF400521A610648FFF7E4FF12
:10019C00034B4FF400525A610248FFF7DDFFF0E7C2
:1001AC000010014040420F0080B500AF154B1B689A
:1001BC00144A43F001031360124B5A681149124B55
:1001CC0013404B600F4B1B680E4A23F0847323F4CF
:1001DC00803313600B4B1B680A4A23F48023136093
:1001EC00084B5B68074A23F4FE035360054B4FF43E
:1001FC001F029A6000F07EF8044B4FF000629A6088
:10020C0000BF80BD001002400000FFF800ED00E0D0
:10021C0080B485B000AF0023FB600023BB600023DB
:10022C007B602F4B5B6803F00C03FB60FB68082BB7
:10023C0011D0FB68082B3AD8FB68002B03D0FB6865
:10024C00042B04D033E0274B274A1A6033E0254BAC
:10025C00254A1A602FE0224B5B6803F47013BB60D5
:10026C001F4B5B6803F480337B60BB689B0C0233D1
:10027C00BB607B68002B06D1BB681C4A02FB03F3F6
:10028C00184A136017E0164B5B6803F40033002B1D
:10029C0006D0BB68154A02FB03F3124A13600AE04E
:1002AC00BB68114A02FB03F30E4A136003E00D4BCB
:1002BC000D4A1A6000BF0A4B5B681B0903F00F0361
:1002CC000B4AD35CDBB2FB60064B1A68FB6822FA64
:1002DC0003F3044A136000BF1437BD4680BC70475B
:1002EC00001002400000002000127A0000093D00BE
:1002FC000400002080B500AF00F002F800BF80BD04
:10030C0080B483B000AF00237B6000233B603A4B8A
:10031C001B68394A43F480331360374B1B6803F472
:10032C0000333B607B6801337B603B68002B03D15F
:10033C007B68B3F5A06FF0D12F4B1B6803F400332F
:10034C00002B02D001233B6001E000233B603B68A3
:10035C00012B4BD1294B1B68284A43F01003136027
:10036C00264B1B68254A23F007031360234B1B689D
:10037C00224A43F0020313601F4B1F4A5B68536011
:10038C001D4B1D4A5B6853601B4B5B681A4A43F458
:10039C0080635360184B5B68174A23F47C135360DB
:1003AC00154B5B68144A43F4E8135360124B1B68FB
:1003BC00114A43F08073136000BF0F4B1B6803F0AE
:1003CC000073002BF9D00C4B5B680B4A23F0030332
:1003DC005360094B5B68084A43F00203536000BF4B
:1003EC00054B5B6803F00C03082BF9D100BF0C37ED
:1003FC00BD4680BC704700BF001002400020024088
:10040C00002103E00A4B5B584350043109480A4B66
:10041C0042189A42F6D3094A02E0002342F8043B00
:10042C00074B9A42F9D3FFF7BFFEFFF7A6FE7047C2
:10043C0054040008000000201400002014000020C8
:08044C0014000020FEE700008F
:1004540000A24A040000000000000000010203049E
:040464000607080976
:040000050800040DDE
:00000001FF
